{
  "contractName": "Election",
  "abi": [
    {
      "constant": true,
      "inputs": [],
      "name": "chairperson",
      "outputs": [
        {
          "name": "",
          "type": "address"
        }
      ],
      "payable": false,
      "stateMutability": "view",
      "type": "function",
      "signature": "0x2e4176cf"
    },
    {
      "constant": false,
      "inputs": [],
      "name": "unpause",
      "outputs": [],
      "payable": false,
      "stateMutability": "nonpayable",
      "type": "function",
      "signature": "0x3f4ba83a"
    },
    {
      "constant": true,
      "inputs": [
        {
          "name": "account",
          "type": "address"
        }
      ],
      "name": "isPauser",
      "outputs": [
        {
          "name": "",
          "type": "bool"
        }
      ],
      "payable": false,
      "stateMutability": "view",
      "type": "function",
      "signature": "0x46fbf68e"
    },
    {
      "constant": true,
      "inputs": [
        {
          "name": "",
          "type": "address"
        }
      ],
      "name": "gurus",
      "outputs": [
        {
          "name": "name",
          "type": "bytes32"
        },
        {
          "name": "arrayIndex",
          "type": "uint256"
        }
      ],
      "payable": false,
      "stateMutability": "view",
      "type": "function",
      "signature": "0x482cf801"
    },
    {
      "constant": false,
      "inputs": [
        {
          "name": "_chairperson",
          "type": "address"
        }
      ],
      "name": "changeChairperson",
      "outputs": [],
      "payable": false,
      "stateMutability": "nonpayable",
      "type": "function",
      "signature": "0x53c3842b"
    },
    {
      "constant": true,
      "inputs": [],
      "name": "closed",
      "outputs": [
        {
          "name": "",
          "type": "bool"
        }
      ],
      "payable": false,
      "stateMutability": "view",
      "type": "function",
      "signature": "0x597e1fb5"
    },
    {
      "constant": true,
      "inputs": [],
      "name": "paused",
      "outputs": [
        {
          "name": "",
          "type": "bool"
        }
      ],
      "payable": false,
      "stateMutability": "view",
      "type": "function",
      "signature": "0x5c975abb"
    },
    {
      "constant": true,
      "inputs": [
        {
          "name": "",
          "type": "uint256"
        }
      ],
      "name": "gurusArray",
      "outputs": [
        {
          "name": "",
          "type": "address"
        }
      ],
      "payable": false,
      "stateMutability": "view",
      "type": "function",
      "signature": "0x68b91e2d"
    },
    {
      "constant": false,
      "inputs": [],
      "name": "renouncePauser",
      "outputs": [],
      "payable": false,
      "stateMutability": "nonpayable",
      "type": "function",
      "signature": "0x6ef8d66d"
    },
    {
      "constant": false,
      "inputs": [],
      "name": "renounceOwnership",
      "outputs": [],
      "payable": false,
      "stateMutability": "nonpayable",
      "type": "function",
      "signature": "0x715018a6"
    },
    {
      "constant": false,
      "inputs": [
        {
          "name": "account",
          "type": "address"
        }
      ],
      "name": "addPauser",
      "outputs": [],
      "payable": false,
      "stateMutability": "nonpayable",
      "type": "function",
      "signature": "0x82dc1ec4"
    },
    {
      "constant": false,
      "inputs": [],
      "name": "pause",
      "outputs": [],
      "payable": false,
      "stateMutability": "nonpayable",
      "type": "function",
      "signature": "0x8456cb59"
    },
    {
      "constant": true,
      "inputs": [],
      "name": "owner",
      "outputs": [
        {
          "name": "",
          "type": "address"
        }
      ],
      "payable": false,
      "stateMutability": "view",
      "type": "function",
      "signature": "0x8da5cb5b"
    },
    {
      "constant": true,
      "inputs": [],
      "name": "isOwner",
      "outputs": [
        {
          "name": "",
          "type": "bool"
        }
      ],
      "payable": false,
      "stateMutability": "view",
      "type": "function",
      "signature": "0x8f32d59b"
    },
    {
      "constant": false,
      "inputs": [
        {
          "name": "newOwner",
          "type": "address"
        }
      ],
      "name": "transferOwnership",
      "outputs": [],
      "payable": false,
      "stateMutability": "nonpayable",
      "type": "function",
      "signature": "0xf2fde38b"
    },
    {
      "inputs": [],
      "payable": false,
      "stateMutability": "nonpayable",
      "type": "constructor",
      "signature": "constructor"
    },
    {
      "anonymous": false,
      "inputs": [
        {
          "indexed": true,
          "name": "chairperson",
          "type": "address"
        }
      ],
      "name": "ElectionOpened",
      "type": "event",
      "signature": "0x4b262e336aa13d3604f3b9f35e3987dbb6e1d31e3a33291aaf3c151cf5b2968d"
    },
    {
      "anonymous": false,
      "inputs": [
        {
          "indexed": true,
          "name": "wallet",
          "type": "address"
        },
        {
          "indexed": false,
          "name": "name",
          "type": "bytes32"
        },
        {
          "indexed": true,
          "name": "addedBy",
          "type": "address"
        }
      ],
      "name": "GuruAdded",
      "type": "event",
      "signature": "0x2f134586d24725c7c501b839df8f612336c848b516262cca8c79185fce22df70"
    },
    {
      "anonymous": false,
      "inputs": [
        {
          "indexed": true,
          "name": "guruWallet",
          "type": "address"
        },
        {
          "indexed": true,
          "name": "voter",
          "type": "address"
        }
      ],
      "name": "Voted",
      "type": "event",
      "signature": "0xce0c7a2a940807f7dc2ce7a615c2532e915e6c0ac9a08bc4ed9d515a710a53e2"
    },
    {
      "anonymous": false,
      "inputs": [
        {
          "indexed": true,
          "name": "chairperson",
          "type": "address"
        }
      ],
      "name": "ElectionClosed",
      "type": "event",
      "signature": "0x0b58a262168e64f7399bbbf7f6af70c1653a375865ac71daafc2827150a215b0"
    },
    {
      "anonymous": false,
      "inputs": [
        {
          "indexed": true,
          "name": "previousChairperson",
          "type": "address"
        },
        {
          "indexed": true,
          "name": "newChairperson",
          "type": "address"
        }
      ],
      "name": "ChairpersonChanged",
      "type": "event",
      "signature": "0x0c94bd78906673549bca6b8028fe63bc67d94221969491c23a7b75ef2c796354"
    },
    {
      "anonymous": false,
      "inputs": [
        {
          "indexed": false,
          "name": "account",
          "type": "address"
        }
      ],
      "name": "Paused",
      "type": "event",
      "signature": "0x62e78cea01bee320cd4e420270b5ea74000d11b0c9f74754ebdbfc544b05a258"
    },
    {
      "anonymous": false,
      "inputs": [
        {
          "indexed": false,
          "name": "account",
          "type": "address"
        }
      ],
      "name": "Unpaused",
      "type": "event",
      "signature": "0x5db9ee0a495bf2e6ff9c91a7834c1ba4fdd244a5e8aa4e537bd38aeae4b073aa"
    },
    {
      "anonymous": false,
      "inputs": [
        {
          "indexed": true,
          "name": "account",
          "type": "address"
        }
      ],
      "name": "PauserAdded",
      "type": "event",
      "signature": "0x6719d08c1888103bea251a4ed56406bd0c3e69723c8a1686e017e7bbe159b6f8"
    },
    {
      "anonymous": false,
      "inputs": [
        {
          "indexed": true,
          "name": "account",
          "type": "address"
        }
      ],
      "name": "PauserRemoved",
      "type": "event",
      "signature": "0xcd265ebaf09df2871cc7bd4133404a235ba12eff2041bb89d9c714a2621c7c7e"
    },
    {
      "anonymous": false,
      "inputs": [
        {
          "indexed": true,
          "name": "previousOwner",
          "type": "address"
        },
        {
          "indexed": true,
          "name": "newOwner",
          "type": "address"
        }
      ],
      "name": "OwnershipTransferred",
      "type": "event",
      "signature": "0x8be0079c531659141344cd1fd0a4f28419497f9722a3daafe3b4186f6b6457e0"
    },
    {
      "constant": false,
      "inputs": [],
      "name": "close",
      "outputs": [],
      "payable": false,
      "stateMutability": "nonpayable",
      "type": "function",
      "signature": "0x43d726d6"
    },
    {
      "constant": true,
      "inputs": [],
      "name": "getGurusCount",
      "outputs": [
        {
          "name": "",
          "type": "uint256"
        }
      ],
      "payable": false,
      "stateMutability": "view",
      "type": "function",
      "signature": "0x8205d964"
    },
    {
      "constant": false,
      "inputs": [
        {
          "name": "_name",
          "type": "bytes32"
        },
        {
          "name": "_wallet",
          "type": "address"
        }
      ],
      "name": "addGuru",
      "outputs": [],
      "payable": false,
      "stateMutability": "nonpayable",
      "type": "function",
      "signature": "0x141f7436"
    },
    {
      "constant": false,
      "inputs": [
        {
          "name": "_name",
          "type": "bytes32"
        }
      ],
      "name": "beGuru",
      "outputs": [],
      "payable": false,
      "stateMutability": "nonpayable",
      "type": "function",
      "signature": "0xb50bffa3"
    },
    {
      "constant": false,
      "inputs": [
        {
          "name": "_wallet",
          "type": "address"
        }
      ],
      "name": "vote",
      "outputs": [],
      "payable": false,
      "stateMutability": "nonpayable",
      "type": "function",
      "signature": "0x6dd7d8ea"
    },
    {
      "constant": true,
      "inputs": [
        {
          "name": "_wallet",
          "type": "address"
        }
      ],
      "name": "getVotesCount",
      "outputs": [
        {
          "name": "",
          "type": "uint256"
        }
      ],
      "payable": false,
      "stateMutability": "view",
      "type": "function",
      "signature": "0xc19fe6c2"
    },
    {
      "constant": true,
      "inputs": [
        {
          "name": "_guruWallet",
          "type": "address"
        },
        {
          "name": "_voterWallet",
          "type": "address"
        }
      ],
      "name": "isElectedBy",
      "outputs": [
        {
          "name": "",
          "type": "bool"
        }
      ],
      "payable": false,
      "stateMutability": "view",
      "type": "function",
      "signature": "0xd6eb6285"
    }
  ],
  "bytecode": "0x60806040526000600260156101000a81548160ff0219169083151502179055503480156200002c57600080fd5b50336000806101000a81548173ffffffffffffffffffffffffffffffffffffffff021916908373ffffffffffffffffffffffffffffffffffffffff1602179055506000809054906101000a900473ffffffffffffffffffffffffffffffffffffffff1673ffffffffffffffffffffffffffffffffffffffff16600073ffffffffffffffffffffffffffffffffffffffff167f8be0079c531659141344cd1fd0a4f28419497f9722a3daafe3b4186f6b6457e060405160405180910390a36200010333620001a8640100000000026401000000009004565b6000600260006101000a81548160ff02191690831515021790555033600260016101000a81548173ffffffffffffffffffffffffffffffffffffffff021916908373ffffffffffffffffffffffffffffffffffffffff1602179055503373ffffffffffffffffffffffffffffffffffffffff167f4b262e336aa13d3604f3b9f35e3987dbb6e1d31e3a33291aaf3c151cf5b2968d60405160405180910390a26200036a565b620001cc816001620002126401000000000262001652179091906401000000009004565b8073ffffffffffffffffffffffffffffffffffffffff167f6719d08c1888103bea251a4ed56406bd0c3e69723c8a1686e017e7bbe159b6f860405160405180910390a250565b600073ffffffffffffffffffffffffffffffffffffffff168173ffffffffffffffffffffffffffffffffffffffff16141515156200024f57600080fd5b6200026a8282620002d5640100000000026401000000009004565b1515156200027757600080fd5b60018260000160008373ffffffffffffffffffffffffffffffffffffffff1673ffffffffffffffffffffffffffffffffffffffff16815260200190815260200160002060006101000a81548160ff0219169083151502179055505050565b60008073ffffffffffffffffffffffffffffffffffffffff168273ffffffffffffffffffffffffffffffffffffffff16141515156200031357600080fd5b8260000160008373ffffffffffffffffffffffffffffffffffffffff1673ffffffffffffffffffffffffffffffffffffffff16815260200190815260200160002060009054906101000a900460ff16905092915050565b61172e806200037a6000396000f3fe608060405260043610610128576000357c0100000000000000000000000000000000000000000000000000000000900463ffffffff168063141f74361461012d5780632e4176cf146101885780633f4ba83a146101df57806343d726d6146101f657806346fbf68e1461020d578063482cf8011461027657806353c3842b146102e2578063597e1fb5146103335780635c975abb1461036257806368b91e2d146103915780636dd7d8ea1461040c5780636ef8d66d1461045d578063715018a6146104745780638205d9641461048b57806382dc1ec4146104b65780638456cb59146105075780638da5cb5b1461051e5780638f32d59b14610575578063b50bffa3146105a4578063c19fe6c2146105df578063d6eb628514610644578063f2fde38b146106cd575b600080fd5b34801561013957600080fd5b506101866004803603604081101561015057600080fd5b8101908080359060200190929190803573ffffffffffffffffffffffffffffffffffffffff16906020019092919050505061071e565b005b34801561019457600080fd5b5061019d6107c4565b604051808273ffffffffffffffffffffffffffffffffffffffff1673ffffffffffffffffffffffffffffffffffffffff16815260200191505060405180910390f35b3480156101eb57600080fd5b506101f46107ea565b005b34801561020257600080fd5b5061020b610899565b005b34801561021957600080fd5b5061025c6004803603602081101561023057600080fd5b81019080803573ffffffffffffffffffffffffffffffffffffffff169060200190929190505050610971565b604051808215151515815260200191505060405180910390f35b34801561028257600080fd5b506102c56004803603602081101561029957600080fd5b81019080803573ffffffffffffffffffffffffffffffffffffffff16906020019092919050505061098e565b604051808381526020018281526020019250505060405180910390f35b3480156102ee57600080fd5b506103316004803603602081101561030557600080fd5b81019080803573ffffffffffffffffffffffffffffffffffffffff1690602001909291905050506109b2565b005b34801561033f57600080fd5b50610348610add565b604051808215151515815260200191505060405180910390f35b34801561036e57600080fd5b50610377610af0565b604051808215151515815260200191505060405180910390f35b34801561039d57600080fd5b506103ca600480360360208110156103b457600080fd5b8101908080359060200190929190505050610b07565b604051808273ffffffffffffffffffffffffffffffffffffffff1673ffffffffffffffffffffffffffffffffffffffff16815260200191505060405180910390f35b34801561041857600080fd5b5061045b6004803603602081101561042f57600080fd5b81019080803573ffffffffffffffffffffffffffffffffffffffff169060200190929190505050610b45565b005b34801561046957600080fd5b50610472610e12565b005b34801561048057600080fd5b50610489610e1d565b005b34801561049757600080fd5b506104a0610eef565b6040518082815260200191505060405180910390f35b3480156104c257600080fd5b50610505600480360360208110156104d957600080fd5b81019080803573ffffffffffffffffffffffffffffffffffffffff169060200190929190505050610efc565b005b34801561051357600080fd5b5061051c610f1c565b005b34801561052a57600080fd5b50610533610fcc565b604051808273ffffffffffffffffffffffffffffffffffffffff1673ffffffffffffffffffffffffffffffffffffffff16815260200191505060405180910390f35b34801561058157600080fd5b5061058a610ff5565b604051808215151515815260200191505060405180910390f35b3480156105b057600080fd5b506105dd600480360360208110156105c757600080fd5b810190808035906020019092919050505061104c565b005b3480156105eb57600080fd5b5061062e6004803603602081101561060257600080fd5b81019080803573ffffffffffffffffffffffffffffffffffffffff169060200190929190505050611059565b6040518082815260200191505060405180910390f35b34801561065057600080fd5b506106b36004803603604081101561066757600080fd5b81019080803573ffffffffffffffffffffffffffffffffffffffff169060200190929190803573ffffffffffffffffffffffffffffffffffffffff1690602001909291905050506110a8565b604051808215151515815260200191505060405180910390f35b3480156106d957600080fd5b5061071c600480360360208110156106f057600080fd5b81019080803573ffffffffffffffffffffffffffffffffffffffff16906020019092919050505061113f565b005b600260019054906101000a900473ffffffffffffffffffffffffffffffffffffffff1673ffffffffffffffffffffffffffffffffffffffff163373ffffffffffffffffffffffffffffffffffffffff1614151561077a57600080fd5b600073ffffffffffffffffffffffffffffffffffffffff168173ffffffffffffffffffffffffffffffffffffffff16141515156107b657600080fd5b6107c0828261115e565b5050565b600260019054906101000a900473ffffffffffffffffffffffffffffffffffffffff1681565b6107f333610971565b15156107fe57600080fd5b600260009054906101000a900460ff16151561081957600080fd5b6000600260006101000a81548160ff0219169083151502179055507f5db9ee0a495bf2e6ff9c91a7834c1ba4fdd244a5e8aa4e537bd38aeae4b073aa33604051808273ffffffffffffffffffffffffffffffffffffffff1673ffffffffffffffffffffffffffffffffffffffff16815260200191505060405180910390a1565b600260019054906101000a900473ffffffffffffffffffffffffffffffffffffffff1673ffffffffffffffffffffffffffffffffffffffff163373ffffffffffffffffffffffffffffffffffffffff161415156108f557600080fd5b600260009054906101000a900460ff1615151561091157600080fd5b3373ffffffffffffffffffffffffffffffffffffffff167f0b58a262168e64f7399bbbf7f6af70c1653a375865ac71daafc2827150a215b060405160405180910390a26001600260156101000a81548160ff021916908315150217905550565b600061098782600161136190919063ffffffff16565b9050919050565b60036020528060005260406000206000915090508060000154908060030154905082565b6109ba610ff5565b15156109c557600080fd5b600260009054906101000a900460ff161515156109e157600080fd5b600073ffffffffffffffffffffffffffffffffffffffff168173ffffffffffffffffffffffffffffffffffffffff1614151515610a1d57600080fd5b8073ffffffffffffffffffffffffffffffffffffffff16600260019054906101000a900473ffffffffffffffffffffffffffffffffffffffff1673ffffffffffffffffffffffffffffffffffffffff167f0c94bd78906673549bca6b8028fe63bc67d94221969491c23a7b75ef2c79635460405160405180910390a380600260016101000a81548173ffffffffffffffffffffffffffffffffffffffff021916908373ffffffffffffffffffffffffffffffffffffffff16021790555050565b600260159054906101000a900460ff1681565b6000600260009054906101000a900460ff16905090565b600481815481101515610b1657fe5b906000526020600020016000915054906101000a900473ffffffffffffffffffffffffffffffffffffffff1681565b60001515600260159054906101000a900460ff161515141515610b6757600080fd5b600260009054906101000a900460ff16151515610b8357600080fd5b6000600102600360008373ffffffffffffffffffffffffffffffffffffffff1673ffffffffffffffffffffffffffffffffffffffff1681526020019081526020016000206000015414151515610bd857600080fd5b60001515600360008373ffffffffffffffffffffffffffffffffffffffff1673ffffffffffffffffffffffffffffffffffffffff16815260200190815260200160002060010160003373ffffffffffffffffffffffffffffffffffffffff1673ffffffffffffffffffffffffffffffffffffffff16815260200190815260200160002060009054906101000a900460ff161515141515610c7757600080fd5b3373ffffffffffffffffffffffffffffffffffffffff168173ffffffffffffffffffffffffffffffffffffffff167fce0c7a2a940807f7dc2ce7a615c2532e915e6c0ac9a08bc4ed9d515a710a53e260405160405180910390a36001600360008373ffffffffffffffffffffffffffffffffffffffff1673ffffffffffffffffffffffffffffffffffffffff16815260200190815260200160002060010160003373ffffffffffffffffffffffffffffffffffffffff1673ffffffffffffffffffffffffffffffffffffffff16815260200190815260200160002060006101000a81548160ff021916908315150217905550600360008273ffffffffffffffffffffffffffffffffffffffff1673ffffffffffffffffffffffffffffffffffffffff1681526020019081526020016000206002013390806001815401808255809150509060018203906000526020600020016000909192909190916101000a81548173ffffffffffffffffffffffffffffffffffffffff021916908373ffffffffffffffffffffffffffffffffffffffff1602179055505050565b610e1b336113f5565b565b610e25610ff5565b1515610e3057600080fd5b600073ffffffffffffffffffffffffffffffffffffffff166000809054906101000a900473ffffffffffffffffffffffffffffffffffffffff1673ffffffffffffffffffffffffffffffffffffffff167f8be0079c531659141344cd1fd0a4f28419497f9722a3daafe3b4186f6b6457e060405160405180910390a360008060006101000a81548173ffffffffffffffffffffffffffffffffffffffff021916908373ffffffffffffffffffffffffffffffffffffffff160217905550565b6000600480549050905090565b610f0533610971565b1515610f1057600080fd5b610f198161144f565b50565b610f2533610971565b1515610f3057600080fd5b600260009054906101000a900460ff16151515610f4c57600080fd5b6001600260006101000a81548160ff0219169083151502179055507f62e78cea01bee320cd4e420270b5ea74000d11b0c9f74754ebdbfc544b05a25833604051808273ffffffffffffffffffffffffffffffffffffffff1673ffffffffffffffffffffffffffffffffffffffff16815260200191505060405180910390a1565b60008060009054906101000a900473ffffffffffffffffffffffffffffffffffffffff16905090565b60008060009054906101000a900473ffffffffffffffffffffffffffffffffffffffff1673ffffffffffffffffffffffffffffffffffffffff163373ffffffffffffffffffffffffffffffffffffffff1614905090565b611056813361115e565b50565b6000600360008373ffffffffffffffffffffffffffffffffffffffff1673ffffffffffffffffffffffffffffffffffffffff168152602001908152602001600020600201805490509050919050565b6000600360008473ffffffffffffffffffffffffffffffffffffffff1673ffffffffffffffffffffffffffffffffffffffff16815260200190815260200160002060010160008373ffffffffffffffffffffffffffffffffffffffff1673ffffffffffffffffffffffffffffffffffffffff16815260200190815260200160002060009054906101000a900460ff16905092915050565b611147610ff5565b151561115257600080fd5b61115b816114a9565b50565b60001515600260159054906101000a900460ff16151514151561118057600080fd5b600260009054906101000a900460ff1615151561119c57600080fd5b600060010282141515156111af57600080fd5b6000600102600360008373ffffffffffffffffffffffffffffffffffffffff1673ffffffffffffffffffffffffffffffffffffffff1681526020019081526020016000206000015414151561120357600080fd5b3373ffffffffffffffffffffffffffffffffffffffff168173ffffffffffffffffffffffffffffffffffffffff167f2f134586d24725c7c501b839df8f612336c848b516262cca8c79185fce22df70846040518082815260200191505060405180910390a381600360008373ffffffffffffffffffffffffffffffffffffffff1673ffffffffffffffffffffffffffffffffffffffff16815260200190815260200160002060000181905550600160048290806001815401808255809150509060018203906000526020600020016000909192909190916101000a81548173ffffffffffffffffffffffffffffffffffffffff021916908373ffffffffffffffffffffffffffffffffffffffff16021790555003600360008373ffffffffffffffffffffffffffffffffffffffff1673ffffffffffffffffffffffffffffffffffffffff168152602001908152602001600020600301819055505050565b60008073ffffffffffffffffffffffffffffffffffffffff168273ffffffffffffffffffffffffffffffffffffffff161415151561139e57600080fd5b8260000160008373ffffffffffffffffffffffffffffffffffffffff1673ffffffffffffffffffffffffffffffffffffffff16815260200190815260200160002060009054906101000a900460ff16905092915050565b6114098160016115a390919063ffffffff16565b8073ffffffffffffffffffffffffffffffffffffffff167fcd265ebaf09df2871cc7bd4133404a235ba12eff2041bb89d9c714a2621c7c7e60405160405180910390a250565b61146381600161165290919063ffffffff16565b8073ffffffffffffffffffffffffffffffffffffffff167f6719d08c1888103bea251a4ed56406bd0c3e69723c8a1686e017e7bbe159b6f860405160405180910390a250565b600073ffffffffffffffffffffffffffffffffffffffff168173ffffffffffffffffffffffffffffffffffffffff16141515156114e557600080fd5b8073ffffffffffffffffffffffffffffffffffffffff166000809054906101000a900473ffffffffffffffffffffffffffffffffffffffff1673ffffffffffffffffffffffffffffffffffffffff167f8be0079c531659141344cd1fd0a4f28419497f9722a3daafe3b4186f6b6457e060405160405180910390a3806000806101000a81548173ffffffffffffffffffffffffffffffffffffffff021916908373ffffffffffffffffffffffffffffffffffffffff16021790555050565b600073ffffffffffffffffffffffffffffffffffffffff168173ffffffffffffffffffffffffffffffffffffffff16141515156115df57600080fd5b6115e98282611361565b15156115f457600080fd5b60008260000160008373ffffffffffffffffffffffffffffffffffffffff1673ffffffffffffffffffffffffffffffffffffffff16815260200190815260200160002060006101000a81548160ff0219169083151502179055505050565b600073ffffffffffffffffffffffffffffffffffffffff168173ffffffffffffffffffffffffffffffffffffffff161415151561168e57600080fd5b6116988282611361565b1515156116a457600080fd5b60018260000160008373ffffffffffffffffffffffffffffffffffffffff1673ffffffffffffffffffffffffffffffffffffffff16815260200190815260200160002060006101000a81548160ff021916908315150217905550505056fea165627a7a723058200ca327ef6525ea2cdd171d3c6508dc28b9e9e08f67b10ac772b0b6c6fde348920029",
  "source": "pragma solidity ^0.5.0;\n\nimport \"./ElectionBase.sol\";\n\n/// @title Election\n/// @notice Assumptions: A voter can vote for more than one guru wallet. \n/// However, the voter cannot vote for the same guru wallet more than once.\n/// And the given vote cannot be undone (this can be changed easily if needed).\ncontract Election is ElectionBase {\n    \n    /// @notice Election is opened once the contract is deployed\n    bool public closed = false;\n    \n    /// @dev The key of the mapping is the address (wallet) of a guru.\n    mapping (address => Guru) public gurus;\n    \n    /// @dev An array is used to be able to iterate over all gurus.\n    address[] public gurusArray;\n    \n    event ElectionOpened(address indexed chairperson);\n    event GuruAdded(address indexed wallet, bytes32 name, address indexed addedBy);\n    event Voted(address indexed guruWallet, address indexed voter);\n    event ElectionClosed(address indexed chairperson);\n    \n    modifier electionOpened() {\n        require(closed == false);\n        _;\n    }\n    \n    struct  Guru {\n        /// @dev Bytes32 is used to store the name because it consumes less gas\n        bytes32 name; \n        mapping(address => bool) voters;\n        address[] votersList; //Save only the positive votes. So 'votersList.length' is the votes count.\n        \n        //'arrayIndex' is useful if delete a guru wallet is required (with the ability to iterate on all gurus wallets).\n        uint arrayIndex; //Index of the address of the guru wallet inside 'gurusArray'\n    }\n\n    constructor() ElectionBase() public {\n        emit ElectionOpened(msg.sender);\n    }\n\n    function close() public onlyChairperson whenNotPaused {\n        emit ElectionClosed(msg.sender);\n        closed = true;\n    }\n        \n    function getGurusCount() public view returns (uint) {\n        return gurusArray.length;\n    }\n\n    /// @notice Chairperson can add any guru\n    /// @dev The modfiers whenNotPaused & electionOpened are called\n    /// inside the sub-fuction _addGuru\n    function addGuru(bytes32 _name, address _wallet) public onlyChairperson {\n        require(_wallet != address(0x0));\n        _addGuru(_name, _wallet);\n    }\n\n    /// @notice Receiving applications to become an investment guru\n    /// Anyone can add himself as an investment guru \n    /// @dev The modfier whenNotPaused is used inside the sub fuction _addGuru\n    function beGuru(bytes32 _name) public {\n        _addGuru(_name, msg.sender);\n    }\n    \n    /// @notice Only doable if election is not closed.\n    function _addGuru(bytes32 _name, address _wallet) private electionOpened whenNotPaused {\n        require(_name != 0);\n        require(gurus[_wallet].name == 0); //y has not been added early.\n        \n        emit GuruAdded(_wallet, _name, msg.sender);\n        \n        gurus[_wallet].name = _name;\n        gurus[_wallet].arrayIndex = gurusArray.push(_wallet) - 1;\n    }\n\n    function vote(address _wallet) public electionOpened whenNotPaused {\n        require(gurus[_wallet].name != 0); //guru should be exist\n        require(gurus[_wallet].voters[msg.sender] == false); //The voter has not already voted\n        \n        emit Voted(_wallet, msg.sender);\n        \n        gurus[_wallet].voters[msg.sender] = true;\n        gurus[_wallet].votersList.push(msg.sender);\n    }\n    \n    function getVotesCount(address _wallet) public view returns (uint) {\n        return gurus[_wallet].votersList.length;\n    }\n    \n    function isElectedBy(address _guruWallet, address _voterWallet) public view returns (bool) {\n        return gurus[_guruWallet].voters[_voterWallet];\n    }\n\n}\n",
  "sourcePath": "/projects/investorX-angular-truffle/contracts/Election.sol",
  "compiler": {
    "name": "solc",
    "version": "0.5.0+commit.1d4f565a.Emscripten.clang"
  },
  "schemaVersion": "3.0.1",
  "updatedAt": "2019-01-23T15:15:04.483Z",
  "devdoc": {
    "methods": {
      "addGuru(bytes32,address)": {
        "details": "The modfiers whenNotPaused & electionOpened are called inside the sub-fuction _addGuru"
      },
      "beGuru(bytes32)": {
        "details": "The modfier whenNotPaused is used inside the sub fuction _addGuru"
      },
      "isOwner()": {
        "return": "true if `msg.sender` is the owner of the contract."
      },
      "owner()": {
        "return": "the address of the owner."
      },
      "pause()": {
        "details": "called by the owner to pause, triggers stopped state"
      },
      "paused()": {
        "return": "true if the contract is paused, false otherwise."
      },
      "renounceOwnership()": {
        "details": "Allows the current owner to relinquish control of the contract."
      },
      "transferOwnership(address)": {
        "details": "Allows the current owner to transfer control of the contract to a newOwner.",
        "params": {
          "newOwner": "The address to transfer ownership to."
        }
      },
      "unpause()": {
        "details": "called by the owner to unpause, returns to normal state"
      }
    },
    "title": "Election"
  },
  "userdoc": {
    "methods": {
      "addGuru(bytes32,address)": {
        "notice": "Chairperson can add any guru"
      },
      "beGuru(bytes32)": {
        "notice": "Receiving applications to become an investment guru Anyone can add himself as an investment guru "
      },
      "renounceOwnership()": {
        "notice": "Renouncing to ownership will leave the contract without an owner. It will not be possible to call the functions with the `onlyOwner` modifier anymore."
      }
    },
    "notice": "Assumptions: A voter can vote for more than one guru wallet.  However, the voter cannot vote for the same guru wallet more than once. And the given vote cannot be undone (this can be changed easily if needed)."
  }
}