{
  "contractName": "ElectionFactory",
  "abi": [
    {
      "constant": true,
      "inputs": [],
      "name": "chairperson",
      "outputs": [
        {
          "name": "",
          "type": "address"
        }
      ],
      "payable": false,
      "stateMutability": "view",
      "type": "function",
      "signature": "0x2e4176cf"
    },
    {
      "constant": false,
      "inputs": [],
      "name": "unpause",
      "outputs": [],
      "payable": false,
      "stateMutability": "nonpayable",
      "type": "function",
      "signature": "0x3f4ba83a"
    },
    {
      "constant": true,
      "inputs": [
        {
          "name": "account",
          "type": "address"
        }
      ],
      "name": "isPauser",
      "outputs": [
        {
          "name": "",
          "type": "bool"
        }
      ],
      "payable": false,
      "stateMutability": "view",
      "type": "function",
      "signature": "0x46fbf68e"
    },
    {
      "constant": false,
      "inputs": [
        {
          "name": "_chairperson",
          "type": "address"
        }
      ],
      "name": "changeChairperson",
      "outputs": [],
      "payable": false,
      "stateMutability": "nonpayable",
      "type": "function",
      "signature": "0x53c3842b"
    },
    {
      "constant": true,
      "inputs": [],
      "name": "paused",
      "outputs": [
        {
          "name": "",
          "type": "bool"
        }
      ],
      "payable": false,
      "stateMutability": "view",
      "type": "function",
      "signature": "0x5c975abb"
    },
    {
      "constant": true,
      "inputs": [
        {
          "name": "",
          "type": "uint256"
        }
      ],
      "name": "elections",
      "outputs": [
        {
          "name": "",
          "type": "address"
        }
      ],
      "payable": false,
      "stateMutability": "view",
      "type": "function",
      "signature": "0x5e6fef01"
    },
    {
      "constant": false,
      "inputs": [],
      "name": "renouncePauser",
      "outputs": [],
      "payable": false,
      "stateMutability": "nonpayable",
      "type": "function",
      "signature": "0x6ef8d66d"
    },
    {
      "constant": false,
      "inputs": [],
      "name": "renounceOwnership",
      "outputs": [],
      "payable": false,
      "stateMutability": "nonpayable",
      "type": "function",
      "signature": "0x715018a6"
    },
    {
      "constant": true,
      "inputs": [],
      "name": "currentBatch",
      "outputs": [
        {
          "name": "",
          "type": "uint256"
        }
      ],
      "payable": false,
      "stateMutability": "view",
      "type": "function",
      "signature": "0x76cd940e"
    },
    {
      "constant": false,
      "inputs": [
        {
          "name": "account",
          "type": "address"
        }
      ],
      "name": "addPauser",
      "outputs": [],
      "payable": false,
      "stateMutability": "nonpayable",
      "type": "function",
      "signature": "0x82dc1ec4"
    },
    {
      "constant": false,
      "inputs": [],
      "name": "pause",
      "outputs": [],
      "payable": false,
      "stateMutability": "nonpayable",
      "type": "function",
      "signature": "0x8456cb59"
    },
    {
      "constant": true,
      "inputs": [],
      "name": "owner",
      "outputs": [
        {
          "name": "",
          "type": "address"
        }
      ],
      "payable": false,
      "stateMutability": "view",
      "type": "function",
      "signature": "0x8da5cb5b"
    },
    {
      "constant": true,
      "inputs": [],
      "name": "isOwner",
      "outputs": [
        {
          "name": "",
          "type": "bool"
        }
      ],
      "payable": false,
      "stateMutability": "view",
      "type": "function",
      "signature": "0x8f32d59b"
    },
    {
      "constant": false,
      "inputs": [
        {
          "name": "newOwner",
          "type": "address"
        }
      ],
      "name": "transferOwnership",
      "outputs": [],
      "payable": false,
      "stateMutability": "nonpayable",
      "type": "function",
      "signature": "0xf2fde38b"
    },
    {
      "inputs": [],
      "payable": false,
      "stateMutability": "nonpayable",
      "type": "constructor",
      "signature": "constructor"
    },
    {
      "anonymous": false,
      "inputs": [
        {
          "indexed": true,
          "name": "chairperson",
          "type": "address"
        }
      ],
      "name": "ElectionCreated",
      "type": "event",
      "signature": "0x3bf25a9dfa34d3f99eec4217177ec490f7a345ee390de1e739e9c816a37122f0"
    },
    {
      "anonymous": false,
      "inputs": [
        {
          "indexed": true,
          "name": "factoryChairperson",
          "type": "address"
        },
        {
          "indexed": true,
          "name": "electionChairperson",
          "type": "address"
        }
      ],
      "name": "ElectionAdded",
      "type": "event",
      "signature": "0xa4db12bbd8af3cf1e704f6dca4638d558561f5bcb7118efeaa5484dfda7d3171"
    },
    {
      "anonymous": false,
      "inputs": [
        {
          "indexed": true,
          "name": "previousChairperson",
          "type": "address"
        },
        {
          "indexed": true,
          "name": "newChairperson",
          "type": "address"
        }
      ],
      "name": "ChairpersonChanged",
      "type": "event",
      "signature": "0x0c94bd78906673549bca6b8028fe63bc67d94221969491c23a7b75ef2c796354"
    },
    {
      "anonymous": false,
      "inputs": [
        {
          "indexed": false,
          "name": "account",
          "type": "address"
        }
      ],
      "name": "Paused",
      "type": "event",
      "signature": "0x62e78cea01bee320cd4e420270b5ea74000d11b0c9f74754ebdbfc544b05a258"
    },
    {
      "anonymous": false,
      "inputs": [
        {
          "indexed": false,
          "name": "account",
          "type": "address"
        }
      ],
      "name": "Unpaused",
      "type": "event",
      "signature": "0x5db9ee0a495bf2e6ff9c91a7834c1ba4fdd244a5e8aa4e537bd38aeae4b073aa"
    },
    {
      "anonymous": false,
      "inputs": [
        {
          "indexed": true,
          "name": "account",
          "type": "address"
        }
      ],
      "name": "PauserAdded",
      "type": "event",
      "signature": "0x6719d08c1888103bea251a4ed56406bd0c3e69723c8a1686e017e7bbe159b6f8"
    },
    {
      "anonymous": false,
      "inputs": [
        {
          "indexed": true,
          "name": "account",
          "type": "address"
        }
      ],
      "name": "PauserRemoved",
      "type": "event",
      "signature": "0xcd265ebaf09df2871cc7bd4133404a235ba12eff2041bb89d9c714a2621c7c7e"
    },
    {
      "anonymous": false,
      "inputs": [
        {
          "indexed": true,
          "name": "previousOwner",
          "type": "address"
        },
        {
          "indexed": true,
          "name": "newOwner",
          "type": "address"
        }
      ],
      "name": "OwnershipTransferred",
      "type": "event",
      "signature": "0x8be0079c531659141344cd1fd0a4f28419497f9722a3daafe3b4186f6b6457e0"
    },
    {
      "constant": false,
      "inputs": [],
      "name": "newElection",
      "outputs": [],
      "payable": false,
      "stateMutability": "nonpayable",
      "type": "function",
      "signature": "0xf68a3b10"
    },
    {
      "constant": false,
      "inputs": [
        {
          "name": "_electionContract",
          "type": "address"
        }
      ],
      "name": "addElection",
      "outputs": [],
      "payable": false,
      "stateMutability": "nonpayable",
      "type": "function",
      "signature": "0x694b98ce"
    },
    {
      "constant": false,
      "inputs": [],
      "name": "closeCurrentElection",
      "outputs": [],
      "payable": false,
      "stateMutability": "nonpayable",
      "type": "function",
      "signature": "0x25815d7d"
    }
  ],
  "bytecode": "0x608060405260006003553480156200001657600080fd5b50336000806101000a81548173ffffffffffffffffffffffffffffffffffffffff021916908373ffffffffffffffffffffffffffffffffffffffff1602179055506000809054906101000a900473ffffffffffffffffffffffffffffffffffffffff1673ffffffffffffffffffffffffffffffffffffffff16600073ffffffffffffffffffffffffffffffffffffffff167f8be0079c531659141344cd1fd0a4f28419497f9722a3daafe3b4186f6b6457e060405160405180910390a3620000ed336200014f640100000000026401000000009004565b6000600260006101000a81548160ff02191690831515021790555033600260016101000a81548173ffffffffffffffffffffffffffffffffffffffff021916908373ffffffffffffffffffffffffffffffffffffffff16021790555062000311565b62000173816001620001b96401000000000262001499179091906401000000009004565b8073ffffffffffffffffffffffffffffffffffffffff167f6719d08c1888103bea251a4ed56406bd0c3e69723c8a1686e017e7bbe159b6f860405160405180910390a250565b600073ffffffffffffffffffffffffffffffffffffffff168173ffffffffffffffffffffffffffffffffffffffff1614151515620001f657600080fd5b6200021182826200027c640100000000026401000000009004565b1515156200021e57600080fd5b60018260000160008373ffffffffffffffffffffffffffffffffffffffff1673ffffffffffffffffffffffffffffffffffffffff16815260200190815260200160002060006101000a81548160ff0219169083151502179055505050565b60008073ffffffffffffffffffffffffffffffffffffffff168273ffffffffffffffffffffffffffffffffffffffff1614151515620002ba57600080fd5b8260000160008373ffffffffffffffffffffffffffffffffffffffff1673ffffffffffffffffffffffffffffffffffffffff16815260200190815260200160002060009054906101000a900460ff16905092915050565b61303280620003216000396000f3fe60806040526004361062000103576000357c0100000000000000000000000000000000000000000000000000000000900463ffffffff16806325815d7d14620001085780632e4176cf14620001225780633f4ba83a146200017c57806346fbf68e146200019657806353c3842b14620002035780635c975abb14620002585780635e6fef01146200028a578063694b98ce14620003095780636ef8d66d146200035e578063715018a6146200037857806376cd940e146200039257806382dc1ec414620003c05780638456cb5914620004155780638da5cb5b146200042f5780638f32d59b1462000489578063f2fde38b14620004bb578063f68a3b101462000510575b600080fd5b3480156200011557600080fd5b50620001206200052a565b005b3480156200012f57600080fd5b506200013a62000659565b604051808273ffffffffffffffffffffffffffffffffffffffff1673ffffffffffffffffffffffffffffffffffffffff16815260200191505060405180910390f35b3480156200018957600080fd5b50620001946200067f565b005b348015620001a357600080fd5b50620001e960048036036020811015620001bc57600080fd5b81019080803573ffffffffffffffffffffffffffffffffffffffff16906020019092919050505062000732565b604051808215151515815260200191505060405180910390f35b3480156200021057600080fd5b5062000256600480360360208110156200022957600080fd5b81019080803573ffffffffffffffffffffffffffffffffffffffff16906020019092919050505062000751565b005b3480156200026557600080fd5b506200027062000881565b604051808215151515815260200191505060405180910390f35b3480156200029757600080fd5b50620002c760048036036020811015620002b057600080fd5b810190808035906020019092919050505062000898565b604051808273ffffffffffffffffffffffffffffffffffffffff1673ffffffffffffffffffffffffffffffffffffffff16815260200191505060405180910390f35b3480156200031657600080fd5b506200035c600480360360208110156200032f57600080fd5b81019080803573ffffffffffffffffffffffffffffffffffffffff169060200190929190505050620008cb565b005b3480156200036b57600080fd5b506200037662000c47565b005b3480156200038557600080fd5b506200039062000c54565b005b3480156200039f57600080fd5b50620003aa62000d29565b6040518082815260200191505060405180910390f35b348015620003cd57600080fd5b506200041360048036036020811015620003e657600080fd5b81019080803573ffffffffffffffffffffffffffffffffffffffff16906020019092919050505062000d2f565b005b3480156200042257600080fd5b506200042d62000d54565b005b3480156200043c57600080fd5b506200044762000e08565b604051808273ffffffffffffffffffffffffffffffffffffffff1673ffffffffffffffffffffffffffffffffffffffff16815260200191505060405180910390f35b3480156200049657600080fd5b50620004a162000e31565b604051808215151515815260200191505060405180910390f35b348015620004c857600080fd5b506200050e60048036036020811015620004e157600080fd5b81019080803573ffffffffffffffffffffffffffffffffffffffff16906020019092919050505062000e88565b005b3480156200051d57600080fd5b506200052862000eac565b005b600260019054906101000a900473ffffffffffffffffffffffffffffffffffffffff1673ffffffffffffffffffffffffffffffffffffffff163373ffffffffffffffffffffffffffffffffffffffff161415156200058757600080fd5b600260009054906101000a900460ff16151515620005a457600080fd5b60046000600354815260200190815260200160002060009054906101000a900473ffffffffffffffffffffffffffffffffffffffff1673ffffffffffffffffffffffffffffffffffffffff166343d726d66040518163ffffffff167c0100000000000000000000000000000000000000000000000000000000028152600401600060405180830381600087803b1580156200063e57600080fd5b505af115801562000653573d6000803e3d6000fd5b50505050565b600260019054906101000a900473ffffffffffffffffffffffffffffffffffffffff1681565b6200068a3362000732565b15156200069657600080fd5b600260009054906101000a900460ff161515620006b257600080fd5b6000600260006101000a81548160ff0219169083151502179055507f5db9ee0a495bf2e6ff9c91a7834c1ba4fdd244a5e8aa4e537bd38aeae4b073aa33604051808273ffffffffffffffffffffffffffffffffffffffff1673ffffffffffffffffffffffffffffffffffffffff16815260200191505060405180910390a1565b60006200074a8260016200119e90919063ffffffff16565b9050919050565b6200075b62000e31565b15156200076757600080fd5b600260009054906101000a900460ff161515156200078457600080fd5b600073ffffffffffffffffffffffffffffffffffffffff168173ffffffffffffffffffffffffffffffffffffffff1614151515620007c157600080fd5b8073ffffffffffffffffffffffffffffffffffffffff16600260019054906101000a900473ffffffffffffffffffffffffffffffffffffffff1673ffffffffffffffffffffffffffffffffffffffff167f0c94bd78906673549bca6b8028fe63bc67d94221969491c23a7b75ef2c79635460405160405180910390a380600260016101000a81548173ffffffffffffffffffffffffffffffffffffffff021916908373ffffffffffffffffffffffffffffffffffffffff16021790555050565b6000600260009054906101000a900460ff16905090565b60046020528060005260406000206000915054906101000a900473ffffffffffffffffffffffffffffffffffffffff1681565b600260019054906101000a900473ffffffffffffffffffffffffffffffffffffffff1673ffffffffffffffffffffffffffffffffffffffff163373ffffffffffffffffffffffffffffffffffffffff161415156200092857600080fd5b600260009054906101000a900460ff161515156200094557600080fd5b600060035414151562000ac35760046000600354815260200190815260200160002060009054906101000a900473ffffffffffffffffffffffffffffffffffffffff1673ffffffffffffffffffffffffffffffffffffffff1663597e1fb56040518163ffffffff167c010000000000000000000000000000000000000000000000000000000002815260040160206040518083038186803b158015620009ea57600080fd5b505afa158015620009ff573d6000803e3d6000fd5b505050506040513d602081101562000a1657600080fd5b8101908080519060200190929190505050151562000ac2576040517f08c379a000000000000000000000000000000000000000000000000000000000815260040180806020018281038252603a8152602001807f5374617274696e67206e657720456c656374696f6e207265717569726573207481526020017f686174207468652070726576696f757320697320636c6f73656400000000000081525060400191505060405180910390fd5b5b6003600081548092919060010191905055508060046000600354815260200190815260200160002060006101000a81548173ffffffffffffffffffffffffffffffffffffffff021916908373ffffffffffffffffffffffffffffffffffffffff1602179055508073ffffffffffffffffffffffffffffffffffffffff16632e4176cf6040518163ffffffff167c010000000000000000000000000000000000000000000000000000000002815260040160206040518083038186803b15801562000b8c57600080fd5b505afa15801562000ba1573d6000803e3d6000fd5b505050506040513d602081101562000bb857600080fd5b810190808051906020019092919050505073ffffffffffffffffffffffffffffffffffffffff16600260019054906101000a900473ffffffffffffffffffffffffffffffffffffffff1673ffffffffffffffffffffffffffffffffffffffff167fa4db12bbd8af3cf1e704f6dca4638d558561f5bcb7118efeaa5484dfda7d317160405160405180910390a350565b62000c523362001233565b565b62000c5e62000e31565b151562000c6a57600080fd5b600073ffffffffffffffffffffffffffffffffffffffff166000809054906101000a900473ffffffffffffffffffffffffffffffffffffffff1673ffffffffffffffffffffffffffffffffffffffff167f8be0079c531659141344cd1fd0a4f28419497f9722a3daafe3b4186f6b6457e060405160405180910390a360008060006101000a81548173ffffffffffffffffffffffffffffffffffffffff021916908373ffffffffffffffffffffffffffffffffffffffff160217905550565b60035481565b62000d3a3362000732565b151562000d4657600080fd5b62000d51816200128f565b50565b62000d5f3362000732565b151562000d6b57600080fd5b600260009054906101000a900460ff1615151562000d8857600080fd5b6001600260006101000a81548160ff0219169083151502179055507f62e78cea01bee320cd4e420270b5ea74000d11b0c9f74754ebdbfc544b05a25833604051808273ffffffffffffffffffffffffffffffffffffffff1673ffffffffffffffffffffffffffffffffffffffff16815260200191505060405180910390a1565b60008060009054906101000a900473ffffffffffffffffffffffffffffffffffffffff16905090565b60008060009054906101000a900473ffffffffffffffffffffffffffffffffffffffff1673ffffffffffffffffffffffffffffffffffffffff163373ffffffffffffffffffffffffffffffffffffffff1614905090565b62000e9262000e31565b151562000e9e57600080fd5b62000ea981620012eb565b50565b600260019054906101000a900473ffffffffffffffffffffffffffffffffffffffff1673ffffffffffffffffffffffffffffffffffffffff163373ffffffffffffffffffffffffffffffffffffffff1614151562000f0957600080fd5b600260009054906101000a900460ff1615151562000f2657600080fd5b6000600354141515620010a45760046000600354815260200190815260200160002060009054906101000a900473ffffffffffffffffffffffffffffffffffffffff1673ffffffffffffffffffffffffffffffffffffffff1663597e1fb56040518163ffffffff167c010000000000000000000000000000000000000000000000000000000002815260040160206040518083038186803b15801562000fcb57600080fd5b505afa15801562000fe0573d6000803e3d6000fd5b505050506040513d602081101562000ff757600080fd5b81019080805190602001909291905050501515620010a3576040517f08c379a000000000000000000000000000000000000000000000000000000000815260040180806020018281038252603a8152602001807f5374617274696e67206e657720456c656374696f6e207265717569726573207481526020017f686174207468652070726576696f757320697320636c6f73656400000000000081525060400191505060405180910390fd5b5b6003600081548092919060010191905055506000620010c26200154d565b604051809103906000f080158015620010df573d6000803e3d6000fd5b5090508060046000600354815260200190815260200160002060006101000a81548173ffffffffffffffffffffffffffffffffffffffff021916908373ffffffffffffffffffffffffffffffffffffffff160217905550600260019054906101000a900473ffffffffffffffffffffffffffffffffffffffff1673ffffffffffffffffffffffffffffffffffffffff167f3bf25a9dfa34d3f99eec4217177ec490f7a345ee390de1e739e9c816a37122f060405160405180910390a250565b60008073ffffffffffffffffffffffffffffffffffffffff168273ffffffffffffffffffffffffffffffffffffffff1614151515620011dc57600080fd5b8260000160008373ffffffffffffffffffffffffffffffffffffffff1673ffffffffffffffffffffffffffffffffffffffff16815260200190815260200160002060009054906101000a900460ff16905092915050565b62001249816001620013e690919063ffffffff16565b8073ffffffffffffffffffffffffffffffffffffffff167fcd265ebaf09df2871cc7bd4133404a235ba12eff2041bb89d9c714a2621c7c7e60405160405180910390a250565b620012a58160016200149990919063ffffffff16565b8073ffffffffffffffffffffffffffffffffffffffff167f6719d08c1888103bea251a4ed56406bd0c3e69723c8a1686e017e7bbe159b6f860405160405180910390a250565b600073ffffffffffffffffffffffffffffffffffffffff168173ffffffffffffffffffffffffffffffffffffffff16141515156200132857600080fd5b8073ffffffffffffffffffffffffffffffffffffffff166000809054906101000a900473ffffffffffffffffffffffffffffffffffffffff1673ffffffffffffffffffffffffffffffffffffffff167f8be0079c531659141344cd1fd0a4f28419497f9722a3daafe3b4186f6b6457e060405160405180910390a3806000806101000a81548173ffffffffffffffffffffffffffffffffffffffff021916908373ffffffffffffffffffffffffffffffffffffffff16021790555050565b600073ffffffffffffffffffffffffffffffffffffffff168173ffffffffffffffffffffffffffffffffffffffff16141515156200142357600080fd5b6200142f82826200119e565b15156200143b57600080fd5b60008260000160008373ffffffffffffffffffffffffffffffffffffffff1673ffffffffffffffffffffffffffffffffffffffff16815260200190815260200160002060006101000a81548160ff0219169083151502179055505050565b600073ffffffffffffffffffffffffffffffffffffffff168173ffffffffffffffffffffffffffffffffffffffff1614151515620014d657600080fd5b620014e282826200119e565b151515620014ef57600080fd5b60018260000160008373ffffffffffffffffffffffffffffffffffffffff1673ffffffffffffffffffffffffffffffffffffffff16815260200190815260200160002060006101000a81548160ff0219169083151502179055505050565b604051611aa8806200155f8339019056fe60806040526000600260156101000a81548160ff0219169083151502179055503480156200002c57600080fd5b50336000806101000a81548173ffffffffffffffffffffffffffffffffffffffff021916908373ffffffffffffffffffffffffffffffffffffffff1602179055506000809054906101000a900473ffffffffffffffffffffffffffffffffffffffff1673ffffffffffffffffffffffffffffffffffffffff16600073ffffffffffffffffffffffffffffffffffffffff167f8be0079c531659141344cd1fd0a4f28419497f9722a3daafe3b4186f6b6457e060405160405180910390a36200010333620001a8640100000000026401000000009004565b6000600260006101000a81548160ff02191690831515021790555033600260016101000a81548173ffffffffffffffffffffffffffffffffffffffff021916908373ffffffffffffffffffffffffffffffffffffffff1602179055503373ffffffffffffffffffffffffffffffffffffffff167f4b262e336aa13d3604f3b9f35e3987dbb6e1d31e3a33291aaf3c151cf5b2968d60405160405180910390a26200036a565b620001cc816001620002126401000000000262001652179091906401000000009004565b8073ffffffffffffffffffffffffffffffffffffffff167f6719d08c1888103bea251a4ed56406bd0c3e69723c8a1686e017e7bbe159b6f860405160405180910390a250565b600073ffffffffffffffffffffffffffffffffffffffff168173ffffffffffffffffffffffffffffffffffffffff16141515156200024f57600080fd5b6200026a8282620002d5640100000000026401000000009004565b1515156200027757600080fd5b60018260000160008373ffffffffffffffffffffffffffffffffffffffff1673ffffffffffffffffffffffffffffffffffffffff16815260200190815260200160002060006101000a81548160ff0219169083151502179055505050565b60008073ffffffffffffffffffffffffffffffffffffffff168273ffffffffffffffffffffffffffffffffffffffff16141515156200031357600080fd5b8260000160008373ffffffffffffffffffffffffffffffffffffffff1673ffffffffffffffffffffffffffffffffffffffff16815260200190815260200160002060009054906101000a900460ff16905092915050565b61172e806200037a6000396000f3fe608060405260043610610128576000357c0100000000000000000000000000000000000000000000000000000000900463ffffffff168063141f74361461012d5780632e4176cf146101885780633f4ba83a146101df57806343d726d6146101f657806346fbf68e1461020d578063482cf8011461027657806353c3842b146102e2578063597e1fb5146103335780635c975abb1461036257806368b91e2d146103915780636dd7d8ea1461040c5780636ef8d66d1461045d578063715018a6146104745780638205d9641461048b57806382dc1ec4146104b65780638456cb59146105075780638da5cb5b1461051e5780638f32d59b14610575578063b50bffa3146105a4578063c19fe6c2146105df578063d6eb628514610644578063f2fde38b146106cd575b600080fd5b34801561013957600080fd5b506101866004803603604081101561015057600080fd5b8101908080359060200190929190803573ffffffffffffffffffffffffffffffffffffffff16906020019092919050505061071e565b005b34801561019457600080fd5b5061019d6107c4565b604051808273ffffffffffffffffffffffffffffffffffffffff1673ffffffffffffffffffffffffffffffffffffffff16815260200191505060405180910390f35b3480156101eb57600080fd5b506101f46107ea565b005b34801561020257600080fd5b5061020b610899565b005b34801561021957600080fd5b5061025c6004803603602081101561023057600080fd5b81019080803573ffffffffffffffffffffffffffffffffffffffff169060200190929190505050610971565b604051808215151515815260200191505060405180910390f35b34801561028257600080fd5b506102c56004803603602081101561029957600080fd5b81019080803573ffffffffffffffffffffffffffffffffffffffff16906020019092919050505061098e565b604051808381526020018281526020019250505060405180910390f35b3480156102ee57600080fd5b506103316004803603602081101561030557600080fd5b81019080803573ffffffffffffffffffffffffffffffffffffffff1690602001909291905050506109b2565b005b34801561033f57600080fd5b50610348610add565b604051808215151515815260200191505060405180910390f35b34801561036e57600080fd5b50610377610af0565b604051808215151515815260200191505060405180910390f35b34801561039d57600080fd5b506103ca600480360360208110156103b457600080fd5b8101908080359060200190929190505050610b07565b604051808273ffffffffffffffffffffffffffffffffffffffff1673ffffffffffffffffffffffffffffffffffffffff16815260200191505060405180910390f35b34801561041857600080fd5b5061045b6004803603602081101561042f57600080fd5b81019080803573ffffffffffffffffffffffffffffffffffffffff169060200190929190505050610b45565b005b34801561046957600080fd5b50610472610e12565b005b34801561048057600080fd5b50610489610e1d565b005b34801561049757600080fd5b506104a0610eef565b6040518082815260200191505060405180910390f35b3480156104c257600080fd5b50610505600480360360208110156104d957600080fd5b81019080803573ffffffffffffffffffffffffffffffffffffffff169060200190929190505050610efc565b005b34801561051357600080fd5b5061051c610f1c565b005b34801561052a57600080fd5b50610533610fcc565b604051808273ffffffffffffffffffffffffffffffffffffffff1673ffffffffffffffffffffffffffffffffffffffff16815260200191505060405180910390f35b34801561058157600080fd5b5061058a610ff5565b604051808215151515815260200191505060405180910390f35b3480156105b057600080fd5b506105dd600480360360208110156105c757600080fd5b810190808035906020019092919050505061104c565b005b3480156105eb57600080fd5b5061062e6004803603602081101561060257600080fd5b81019080803573ffffffffffffffffffffffffffffffffffffffff169060200190929190505050611059565b6040518082815260200191505060405180910390f35b34801561065057600080fd5b506106b36004803603604081101561066757600080fd5b81019080803573ffffffffffffffffffffffffffffffffffffffff169060200190929190803573ffffffffffffffffffffffffffffffffffffffff1690602001909291905050506110a8565b604051808215151515815260200191505060405180910390f35b3480156106d957600080fd5b5061071c600480360360208110156106f057600080fd5b81019080803573ffffffffffffffffffffffffffffffffffffffff16906020019092919050505061113f565b005b600260019054906101000a900473ffffffffffffffffffffffffffffffffffffffff1673ffffffffffffffffffffffffffffffffffffffff163373ffffffffffffffffffffffffffffffffffffffff1614151561077a57600080fd5b600073ffffffffffffffffffffffffffffffffffffffff168173ffffffffffffffffffffffffffffffffffffffff16141515156107b657600080fd5b6107c0828261115e565b5050565b600260019054906101000a900473ffffffffffffffffffffffffffffffffffffffff1681565b6107f333610971565b15156107fe57600080fd5b600260009054906101000a900460ff16151561081957600080fd5b6000600260006101000a81548160ff0219169083151502179055507f5db9ee0a495bf2e6ff9c91a7834c1ba4fdd244a5e8aa4e537bd38aeae4b073aa33604051808273ffffffffffffffffffffffffffffffffffffffff1673ffffffffffffffffffffffffffffffffffffffff16815260200191505060405180910390a1565b600260019054906101000a900473ffffffffffffffffffffffffffffffffffffffff1673ffffffffffffffffffffffffffffffffffffffff163373ffffffffffffffffffffffffffffffffffffffff161415156108f557600080fd5b600260009054906101000a900460ff1615151561091157600080fd5b3373ffffffffffffffffffffffffffffffffffffffff167f0b58a262168e64f7399bbbf7f6af70c1653a375865ac71daafc2827150a215b060405160405180910390a26001600260156101000a81548160ff021916908315150217905550565b600061098782600161136190919063ffffffff16565b9050919050565b60036020528060005260406000206000915090508060000154908060030154905082565b6109ba610ff5565b15156109c557600080fd5b600260009054906101000a900460ff161515156109e157600080fd5b600073ffffffffffffffffffffffffffffffffffffffff168173ffffffffffffffffffffffffffffffffffffffff1614151515610a1d57600080fd5b8073ffffffffffffffffffffffffffffffffffffffff16600260019054906101000a900473ffffffffffffffffffffffffffffffffffffffff1673ffffffffffffffffffffffffffffffffffffffff167f0c94bd78906673549bca6b8028fe63bc67d94221969491c23a7b75ef2c79635460405160405180910390a380600260016101000a81548173ffffffffffffffffffffffffffffffffffffffff021916908373ffffffffffffffffffffffffffffffffffffffff16021790555050565b600260159054906101000a900460ff1681565b6000600260009054906101000a900460ff16905090565b600481815481101515610b1657fe5b906000526020600020016000915054906101000a900473ffffffffffffffffffffffffffffffffffffffff1681565b60001515600260159054906101000a900460ff161515141515610b6757600080fd5b600260009054906101000a900460ff16151515610b8357600080fd5b6000600102600360008373ffffffffffffffffffffffffffffffffffffffff1673ffffffffffffffffffffffffffffffffffffffff1681526020019081526020016000206000015414151515610bd857600080fd5b60001515600360008373ffffffffffffffffffffffffffffffffffffffff1673ffffffffffffffffffffffffffffffffffffffff16815260200190815260200160002060010160003373ffffffffffffffffffffffffffffffffffffffff1673ffffffffffffffffffffffffffffffffffffffff16815260200190815260200160002060009054906101000a900460ff161515141515610c7757600080fd5b3373ffffffffffffffffffffffffffffffffffffffff168173ffffffffffffffffffffffffffffffffffffffff167fce0c7a2a940807f7dc2ce7a615c2532e915e6c0ac9a08bc4ed9d515a710a53e260405160405180910390a36001600360008373ffffffffffffffffffffffffffffffffffffffff1673ffffffffffffffffffffffffffffffffffffffff16815260200190815260200160002060010160003373ffffffffffffffffffffffffffffffffffffffff1673ffffffffffffffffffffffffffffffffffffffff16815260200190815260200160002060006101000a81548160ff021916908315150217905550600360008273ffffffffffffffffffffffffffffffffffffffff1673ffffffffffffffffffffffffffffffffffffffff1681526020019081526020016000206002013390806001815401808255809150509060018203906000526020600020016000909192909190916101000a81548173ffffffffffffffffffffffffffffffffffffffff021916908373ffffffffffffffffffffffffffffffffffffffff1602179055505050565b610e1b336113f5565b565b610e25610ff5565b1515610e3057600080fd5b600073ffffffffffffffffffffffffffffffffffffffff166000809054906101000a900473ffffffffffffffffffffffffffffffffffffffff1673ffffffffffffffffffffffffffffffffffffffff167f8be0079c531659141344cd1fd0a4f28419497f9722a3daafe3b4186f6b6457e060405160405180910390a360008060006101000a81548173ffffffffffffffffffffffffffffffffffffffff021916908373ffffffffffffffffffffffffffffffffffffffff160217905550565b6000600480549050905090565b610f0533610971565b1515610f1057600080fd5b610f198161144f565b50565b610f2533610971565b1515610f3057600080fd5b600260009054906101000a900460ff16151515610f4c57600080fd5b6001600260006101000a81548160ff0219169083151502179055507f62e78cea01bee320cd4e420270b5ea74000d11b0c9f74754ebdbfc544b05a25833604051808273ffffffffffffffffffffffffffffffffffffffff1673ffffffffffffffffffffffffffffffffffffffff16815260200191505060405180910390a1565b60008060009054906101000a900473ffffffffffffffffffffffffffffffffffffffff16905090565b60008060009054906101000a900473ffffffffffffffffffffffffffffffffffffffff1673ffffffffffffffffffffffffffffffffffffffff163373ffffffffffffffffffffffffffffffffffffffff1614905090565b611056813361115e565b50565b6000600360008373ffffffffffffffffffffffffffffffffffffffff1673ffffffffffffffffffffffffffffffffffffffff168152602001908152602001600020600201805490509050919050565b6000600360008473ffffffffffffffffffffffffffffffffffffffff1673ffffffffffffffffffffffffffffffffffffffff16815260200190815260200160002060010160008373ffffffffffffffffffffffffffffffffffffffff1673ffffffffffffffffffffffffffffffffffffffff16815260200190815260200160002060009054906101000a900460ff16905092915050565b611147610ff5565b151561115257600080fd5b61115b816114a9565b50565b60001515600260159054906101000a900460ff16151514151561118057600080fd5b600260009054906101000a900460ff1615151561119c57600080fd5b600060010282141515156111af57600080fd5b6000600102600360008373ffffffffffffffffffffffffffffffffffffffff1673ffffffffffffffffffffffffffffffffffffffff1681526020019081526020016000206000015414151561120357600080fd5b3373ffffffffffffffffffffffffffffffffffffffff168173ffffffffffffffffffffffffffffffffffffffff167f2f134586d24725c7c501b839df8f612336c848b516262cca8c79185fce22df70846040518082815260200191505060405180910390a381600360008373ffffffffffffffffffffffffffffffffffffffff1673ffffffffffffffffffffffffffffffffffffffff16815260200190815260200160002060000181905550600160048290806001815401808255809150509060018203906000526020600020016000909192909190916101000a81548173ffffffffffffffffffffffffffffffffffffffff021916908373ffffffffffffffffffffffffffffffffffffffff16021790555003600360008373ffffffffffffffffffffffffffffffffffffffff1673ffffffffffffffffffffffffffffffffffffffff168152602001908152602001600020600301819055505050565b60008073ffffffffffffffffffffffffffffffffffffffff168273ffffffffffffffffffffffffffffffffffffffff161415151561139e57600080fd5b8260000160008373ffffffffffffffffffffffffffffffffffffffff1673ffffffffffffffffffffffffffffffffffffffff16815260200190815260200160002060009054906101000a900460ff16905092915050565b6114098160016115a390919063ffffffff16565b8073ffffffffffffffffffffffffffffffffffffffff167fcd265ebaf09df2871cc7bd4133404a235ba12eff2041bb89d9c714a2621c7c7e60405160405180910390a250565b61146381600161165290919063ffffffff16565b8073ffffffffffffffffffffffffffffffffffffffff167f6719d08c1888103bea251a4ed56406bd0c3e69723c8a1686e017e7bbe159b6f860405160405180910390a250565b600073ffffffffffffffffffffffffffffffffffffffff168173ffffffffffffffffffffffffffffffffffffffff16141515156114e557600080fd5b8073ffffffffffffffffffffffffffffffffffffffff166000809054906101000a900473ffffffffffffffffffffffffffffffffffffffff1673ffffffffffffffffffffffffffffffffffffffff167f8be0079c531659141344cd1fd0a4f28419497f9722a3daafe3b4186f6b6457e060405160405180910390a3806000806101000a81548173ffffffffffffffffffffffffffffffffffffffff021916908373ffffffffffffffffffffffffffffffffffffffff16021790555050565b600073ffffffffffffffffffffffffffffffffffffffff168173ffffffffffffffffffffffffffffffffffffffff16141515156115df57600080fd5b6115e98282611361565b15156115f457600080fd5b60008260000160008373ffffffffffffffffffffffffffffffffffffffff1673ffffffffffffffffffffffffffffffffffffffff16815260200190815260200160002060006101000a81548160ff0219169083151502179055505050565b600073ffffffffffffffffffffffffffffffffffffffff168173ffffffffffffffffffffffffffffffffffffffff161415151561168e57600080fd5b6116988282611361565b1515156116a457600080fd5b60018260000160008373ffffffffffffffffffffffffffffffffffffffff1673ffffffffffffffffffffffffffffffffffffffff16815260200190815260200160002060006101000a81548160ff021916908315150217905550505056fea165627a7a723058200ca327ef6525ea2cdd171d3c6508dc28b9e9e08f67b10ac772b0b6c6fde348920029a165627a7a72305820e92ec50531c673180925d36813e536d2d535622a132aad55ae2a253f622917a90029",
  "source": "pragma solidity ^0.5.0;\n\nimport \"./ElectionBase.sol\";\nimport \"./Election.sol\";\n\n/// @title Generates and keeps tracking of Elections smart contracts.\n/// @notice The chairperson of the factory is responsible of creating \n/// and adding the Elections smart contracts.\n/// @dev The chairperson, in this contract, could be different from \n/// the chairperson of each election.\n\ncontract ElectionFactory is ElectionBase {\n    uint public currentBatch = 0; // Default is 0. But, setting it to 0 is just to make a clearer code\n    \n    mapping (uint => address) public elections;\n    \n    event ElectionCreated(address indexed chairperson);\n    event ElectionAdded(address indexed factoryChairperson, address indexed electionChairperson);\n    \n    /// @notice enforce running only one election at a time\n    modifier latestElectionClosed() {\n        if(currentBatch != 0)\n            require(Election(elections[currentBatch]).closed(),\n                \"Starting new Election requires that the previous is closed\");\n        _;\n    }\n\n    constructor() ElectionBase() public {\n    }\n    \n    function newElection() \n        public \n        onlyChairperson\n        whenNotPaused\n        latestElectionClosed\n    {\n        currentBatch++;\n        Election election = new Election();\n        elections[currentBatch] = address(election);\n        emit ElectionCreated(chairperson);\n    }\n    \n    /// @notice This is used if the Chairperson is willing to add a contract that is\n    /// deffirent from the current one, but compatible with it.\n    /// @dev This method is added to allow for upgreadablity. If a new version of Election contract is impelmented, \n    /// the new Election contract implemenation has to be compatible with the current one.\n    function addElection(address _electionContract) \n        public \n        onlyChairperson\n        whenNotPaused\n        latestElectionClosed\n    {\n        currentBatch++;\n        elections[currentBatch] = _electionContract;\n        emit ElectionAdded(chairperson, Election(_electionContract).chairperson());\n    }\n    \n    /// @notice This is just a wrapper functions because elections \n    /// could be also closed by directly calling 'close()'\n    /// at the Election smart contract.\n    /// @dev This funciton will revert if the current Election's chairperson \n    /// is not the same as the factory chairperson.\n    function closeCurrentElection() public onlyChairperson whenNotPaused {\n        // No need to put require(currentBatch !=0) because exction will fail then in all ways.\n        Election(elections[currentBatch]).close();\n    }\n}",
  "sourcePath": "/projects/investorX-angular-truffle/contracts/ElectionFactory.sol",
  "compiler": {
    "name": "solc",
    "version": "0.5.0+commit.1d4f565a.Emscripten.clang"
  },
  "schemaVersion": "3.0.1",
  "updatedAt": "2019-01-23T15:15:04.480Z",
  "devdoc": {
    "details": "The chairperson, in this contract, could be different from  the chairperson of each election.",
    "methods": {
      "addElection(address)": {
        "details": "This method is added to allow for upgreadablity. If a new version of Election contract is impelmented,  the new Election contract implemenation has to be compatible with the current one."
      },
      "closeCurrentElection()": {
        "details": "This funciton will revert if the current Election's chairperson  is not the same as the factory chairperson."
      },
      "isOwner()": {
        "return": "true if `msg.sender` is the owner of the contract."
      },
      "owner()": {
        "return": "the address of the owner."
      },
      "pause()": {
        "details": "called by the owner to pause, triggers stopped state"
      },
      "paused()": {
        "return": "true if the contract is paused, false otherwise."
      },
      "renounceOwnership()": {
        "details": "Allows the current owner to relinquish control of the contract."
      },
      "transferOwnership(address)": {
        "details": "Allows the current owner to transfer control of the contract to a newOwner.",
        "params": {
          "newOwner": "The address to transfer ownership to."
        }
      },
      "unpause()": {
        "details": "called by the owner to unpause, returns to normal state"
      }
    },
    "title": "Generates and keeps tracking of Elections smart contracts."
  },
  "userdoc": {
    "methods": {
      "addElection(address)": {
        "notice": "This is used if the Chairperson is willing to add a contract that is deffirent from the current one, but compatible with it."
      },
      "closeCurrentElection()": {
        "notice": "This is just a wrapper functions because elections  could be also closed by directly calling 'close()' at the Election smart contract."
      },
      "renounceOwnership()": {
        "notice": "Renouncing to ownership will leave the contract without an owner. It will not be possible to call the functions with the `onlyOwner` modifier anymore."
      }
    },
    "notice": "The chairperson of the factory is responsible of creating  and adding the Elections smart contracts."
  }
}